{
  "contractName": "NFT721",
  "abi": [
    {
      "inputs": [
        {
          "internalType": "string",
          "name": "name",
          "type": "string"
        },
        {
          "internalType": "string",
          "name": "symbol",
          "type": "string"
        },
        {
          "internalType": "address",
          "name": "signer",
          "type": "address"
        },
        {
          "internalType": "string",
          "name": "contractURI",
          "type": "string"
        },
        {
          "internalType": "string",
          "name": "tokenURIPrefix",
          "type": "string"
        }
      ],
      "stateMutability": "nonpayable",
      "type": "constructor"
    },
    {
      "anonymous": false,
      "inputs": [
        {
          "indexed": true,
          "internalType": "address",
          "name": "owner",
          "type": "address"
        },
        {
          "indexed": true,
          "internalType": "address",
          "name": "approved",
          "type": "address"
        },
        {
          "indexed": true,
          "internalType": "uint256",
          "name": "tokenId",
          "type": "uint256"
        }
      ],
      "name": "Approval",
      "type": "event"
    },
    {
      "anonymous": false,
      "inputs": [
        {
          "indexed": true,
          "internalType": "address",
          "name": "owner",
          "type": "address"
        },
        {
          "indexed": true,
          "internalType": "address",
          "name": "operator",
          "type": "address"
        },
        {
          "indexed": false,
          "internalType": "bool",
          "name": "approved",
          "type": "bool"
        }
      ],
      "name": "ApprovalForAll",
      "type": "event"
    },
    {
      "anonymous": false,
      "inputs": [
        {
          "indexed": true,
          "internalType": "address",
          "name": "previousOwner",
          "type": "address"
        },
        {
          "indexed": true,
          "internalType": "address",
          "name": "newOwner",
          "type": "address"
        }
      ],
      "name": "OwnershipTransferred",
      "type": "event"
    },
    {
      "anonymous": false,
      "inputs": [
        {
          "indexed": false,
          "internalType": "uint256",
          "name": "tokenId",
          "type": "uint256"
        },
        {
          "indexed": false,
          "internalType": "address[]",
          "name": "recipients",
          "type": "address[]"
        },
        {
          "indexed": false,
          "internalType": "uint256[]",
          "name": "bps",
          "type": "uint256[]"
        }
      ],
      "name": "SecondarySaleFees",
      "type": "event"
    },
    {
      "anonymous": false,
      "inputs": [
        {
          "indexed": true,
          "internalType": "address",
          "name": "account",
          "type": "address"
        }
      ],
      "name": "SignerAdded",
      "type": "event"
    },
    {
      "anonymous": false,
      "inputs": [
        {
          "indexed": true,
          "internalType": "address",
          "name": "account",
          "type": "address"
        }
      ],
      "name": "SignerRemoved",
      "type": "event"
    },
    {
      "anonymous": false,
      "inputs": [
        {
          "indexed": true,
          "internalType": "address",
          "name": "from",
          "type": "address"
        },
        {
          "indexed": true,
          "internalType": "address",
          "name": "to",
          "type": "address"
        },
        {
          "indexed": true,
          "internalType": "uint256",
          "name": "tokenId",
          "type": "uint256"
        }
      ],
      "name": "Transfer",
      "type": "event"
    },
    {
      "inputs": [
        {
          "internalType": "address",
          "name": "to",
          "type": "address"
        },
        {
          "internalType": "uint256",
          "name": "tokenId",
          "type": "uint256"
        }
      ],
      "name": "approve",
      "outputs": [],
      "stateMutability": "nonpayable",
      "type": "function"
    },
    {
      "inputs": [
        {
          "internalType": "address",
          "name": "owner",
          "type": "address"
        }
      ],
      "name": "balanceOf",
      "outputs": [
        {
          "internalType": "uint256",
          "name": "",
          "type": "uint256"
        }
      ],
      "stateMutability": "view",
      "type": "function"
    },
    {
      "inputs": [
        {
          "internalType": "uint256",
          "name": "tokenId",
          "type": "uint256"
        }
      ],
      "name": "burn",
      "outputs": [],
      "stateMutability": "nonpayable",
      "type": "function"
    },
    {
      "inputs": [],
      "name": "contractURI",
      "outputs": [
        {
          "internalType": "string",
          "name": "",
          "type": "string"
        }
      ],
      "stateMutability": "view",
      "type": "function"
    },
    {
      "inputs": [
        {
          "internalType": "uint256",
          "name": "",
          "type": "uint256"
        },
        {
          "internalType": "uint256",
          "name": "",
          "type": "uint256"
        }
      ],
      "name": "fees",
      "outputs": [
        {
          "internalType": "address payable",
          "name": "recipient",
          "type": "address"
        },
        {
          "internalType": "uint256",
          "name": "value",
          "type": "uint256"
        }
      ],
      "stateMutability": "view",
      "type": "function"
    },
    {
      "inputs": [
        {
          "internalType": "uint256",
          "name": "tokenId",
          "type": "uint256"
        }
      ],
      "name": "getApproved",
      "outputs": [
        {
          "internalType": "address",
          "name": "",
          "type": "address"
        }
      ],
      "stateMutability": "view",
      "type": "function"
    },
    {
      "inputs": [
        {
          "internalType": "uint256",
          "name": "id",
          "type": "uint256"
        }
      ],
      "name": "getFeeBps",
      "outputs": [
        {
          "internalType": "uint256[]",
          "name": "",
          "type": "uint256[]"
        }
      ],
      "stateMutability": "view",
      "type": "function"
    },
    {
      "inputs": [
        {
          "internalType": "uint256",
          "name": "id",
          "type": "uint256"
        }
      ],
      "name": "getFeeRecipients",
      "outputs": [
        {
          "internalType": "address payable[]",
          "name": "",
          "type": "address[]"
        }
      ],
      "stateMutability": "view",
      "type": "function"
    },
    {
      "inputs": [
        {
          "internalType": "address",
          "name": "owner",
          "type": "address"
        },
        {
          "internalType": "address",
          "name": "operator",
          "type": "address"
        }
      ],
      "name": "isApprovedForAll",
      "outputs": [
        {
          "internalType": "bool",
          "name": "",
          "type": "bool"
        }
      ],
      "stateMutability": "view",
      "type": "function"
    },
    {
      "inputs": [
        {
          "internalType": "address",
          "name": "account",
          "type": "address"
        }
      ],
      "name": "isSigner",
      "outputs": [
        {
          "internalType": "bool",
          "name": "",
          "type": "bool"
        }
      ],
      "stateMutability": "view",
      "type": "function"
    },
    {
      "inputs": [],
      "name": "name",
      "outputs": [
        {
          "internalType": "string",
          "name": "",
          "type": "string"
        }
      ],
      "stateMutability": "view",
      "type": "function"
    },
    {
      "inputs": [],
      "name": "owner",
      "outputs": [
        {
          "internalType": "address",
          "name": "",
          "type": "address"
        }
      ],
      "stateMutability": "view",
      "type": "function"
    },
    {
      "inputs": [
        {
          "internalType": "uint256",
          "name": "tokenId",
          "type": "uint256"
        }
      ],
      "name": "ownerOf",
      "outputs": [
        {
          "internalType": "address",
          "name": "",
          "type": "address"
        }
      ],
      "stateMutability": "view",
      "type": "function"
    },
    {
      "inputs": [],
      "name": "renounceOwnership",
      "outputs": [],
      "stateMutability": "nonpayable",
      "type": "function"
    },
    {
      "inputs": [],
      "name": "renounceSigner",
      "outputs": [],
      "stateMutability": "nonpayable",
      "type": "function"
    },
    {
      "inputs": [
        {
          "internalType": "address",
          "name": "from",
          "type": "address"
        },
        {
          "internalType": "address",
          "name": "to",
          "type": "address"
        },
        {
          "internalType": "uint256",
          "name": "tokenId",
          "type": "uint256"
        }
      ],
      "name": "safeTransferFrom",
      "outputs": [],
      "stateMutability": "nonpayable",
      "type": "function"
    },
    {
      "inputs": [
        {
          "internalType": "address",
          "name": "from",
          "type": "address"
        },
        {
          "internalType": "address",
          "name": "to",
          "type": "address"
        },
        {
          "internalType": "uint256",
          "name": "tokenId",
          "type": "uint256"
        },
        {
          "internalType": "bytes",
          "name": "_data",
          "type": "bytes"
        }
      ],
      "name": "safeTransferFrom",
      "outputs": [],
      "stateMutability": "nonpayable",
      "type": "function"
    },
    {
      "inputs": [
        {
          "internalType": "address",
          "name": "to",
          "type": "address"
        },
        {
          "internalType": "bool",
          "name": "approved",
          "type": "bool"
        }
      ],
      "name": "setApprovalForAll",
      "outputs": [],
      "stateMutability": "nonpayable",
      "type": "function"
    },
    {
      "inputs": [
        {
          "internalType": "bytes4",
          "name": "interfaceId",
          "type": "bytes4"
        }
      ],
      "name": "supportsInterface",
      "outputs": [
        {
          "internalType": "bool",
          "name": "",
          "type": "bool"
        }
      ],
      "stateMutability": "view",
      "type": "function"
    },
    {
      "inputs": [],
      "name": "symbol",
      "outputs": [
        {
          "internalType": "string",
          "name": "",
          "type": "string"
        }
      ],
      "stateMutability": "view",
      "type": "function"
    },
    {
      "inputs": [
        {
          "internalType": "uint256",
          "name": "index",
          "type": "uint256"
        }
      ],
      "name": "tokenByIndex",
      "outputs": [
        {
          "internalType": "uint256",
          "name": "",
          "type": "uint256"
        }
      ],
      "stateMutability": "view",
      "type": "function"
    },
    {
      "inputs": [
        {
          "internalType": "address",
          "name": "owner",
          "type": "address"
        },
        {
          "internalType": "uint256",
          "name": "index",
          "type": "uint256"
        }
      ],
      "name": "tokenOfOwnerByIndex",
      "outputs": [
        {
          "internalType": "uint256",
          "name": "",
          "type": "uint256"
        }
      ],
      "stateMutability": "view",
      "type": "function"
    },
    {
      "inputs": [
        {
          "internalType": "uint256",
          "name": "tokenId",
          "type": "uint256"
        }
      ],
      "name": "tokenURI",
      "outputs": [
        {
          "internalType": "string",
          "name": "",
          "type": "string"
        }
      ],
      "stateMutability": "view",
      "type": "function"
    },
    {
      "inputs": [],
      "name": "tokenURIPrefix",
      "outputs": [
        {
          "internalType": "string",
          "name": "",
          "type": "string"
        }
      ],
      "stateMutability": "view",
      "type": "function"
    },
    {
      "inputs": [],
      "name": "totalSupply",
      "outputs": [
        {
          "internalType": "uint256",
          "name": "",
          "type": "uint256"
        }
      ],
      "stateMutability": "view",
      "type": "function"
    },
    {
      "inputs": [
        {
          "internalType": "address",
          "name": "from",
          "type": "address"
        },
        {
          "internalType": "address",
          "name": "to",
          "type": "address"
        },
        {
          "internalType": "uint256",
          "name": "tokenId",
          "type": "uint256"
        }
      ],
      "name": "transferFrom",
      "outputs": [],
      "stateMutability": "nonpayable",
      "type": "function"
    },
    {
      "inputs": [
        {
          "internalType": "address",
          "name": "newOwner",
          "type": "address"
        }
      ],
      "name": "transferOwnership",
      "outputs": [],
      "stateMutability": "nonpayable",
      "type": "function"
    },
    {
      "inputs": [
        {
          "internalType": "address",
          "name": "account",
          "type": "address"
        }
      ],
      "name": "addSigner",
      "outputs": [],
      "stateMutability": "nonpayable",
      "type": "function"
    },
    {
      "inputs": [
        {
          "internalType": "address",
          "name": "account",
          "type": "address"
        }
      ],
      "name": "removeSigner",
      "outputs": [],
      "stateMutability": "nonpayable",
      "type": "function"
    },
    {
      "inputs": [
        {
          "internalType": "uint256",
          "name": "tokenId",
          "type": "uint256"
        },
        {
          "internalType": "uint8",
          "name": "v",
          "type": "uint8"
        },
        {
          "internalType": "bytes32",
          "name": "r",
          "type": "bytes32"
        },
        {
          "internalType": "bytes32",
          "name": "s",
          "type": "bytes32"
        },
        {
          "components": [
            {
              "internalType": "address payable",
              "name": "recipient",
              "type": "address"
            },
            {
              "internalType": "uint256",
              "name": "value",
              "type": "uint256"
            }
          ],
          "internalType": "struct ERC721Base.Fee[]",
          "name": "_fees",
          "type": "tuple[]"
        },
        {
          "internalType": "string",
          "name": "tokenURI",
          "type": "string"
        }
      ],
      "name": "mint",
      "outputs": [],
      "stateMutability": "nonpayable",
      "type": "function"
    },
    {
      "inputs": [
        {
          "internalType": "string",
          "name": "tokenURIPrefix",
          "type": "string"
        }
      ],
      "name": "setTokenURIPrefix",
      "outputs": [],
      "stateMutability": "nonpayable",
      "type": "function"
    },
    {
      "inputs": [
        {
          "internalType": "string",
          "name": "contractURI",
          "type": "string"
        }
      ],
      "name": "setContractURI",
      "outputs": [],
      "stateMutability": "nonpayable",
      "type": "function"
    }
  ],
  "bytecode": "0x60806040523480156200001157600080fd5b506040516200380d3803806200380d833981016040819052620000349162000466565b848483838082600062000046620001c8565b600080546001600160a01b0319166001600160a01b0383169081178255604051929350917f8be0079c531659141344cd1fd0a4f28419497f9722a3daafe3b4186f6b6457e0908290a350620000a46200009e620001c8565b620001cc565b620000b66301ffc9a760e01b6200021e565b620000c8632dde656160e21b6200021e565b8051620000dd90600390602084019062000315565b50620000f063e8a3d48560e01b6200021e565b5080516200010690600490602084019062000315565b506200011b90506380ac58cd60e01b6200021e565b6200012d63780e9d6360e01b6200021e565b83516200014290600e90602087019062000315565b5082516200015890600f90602086019062000315565b506200016b635b5e139f60e01b6200021e565b6200017d630a85bd0160e11b6200021e565b50505050620001b27fe37243f27916e395706434720b54132b80ef5cc8c56f39b0df6485e8dfb697cf6200021e60201b60201c565b620001bd83620001cc565b50505050506200063e565b3390565b620001e78160016200027960201b620010101790919060201c565b6040516001600160a01b038216907f47d1c22a25bb3a5d4e481b9b1e6944c2eade3181a0a20b495ed61d35b5323f2490600090a250565b6001600160e01b03198082161415620002545760405162461bcd60e51b81526004016200024b9062000572565b60405180910390fd5b6001600160e01b0319166000908152600260205260409020805460ff19166001179055565b620002858282620002ca565b15620002a55760405162461bcd60e51b81526004016200024b906200053b565b6001600160a01b0316600090815260209190915260409020805460ff19166001179055565b60006001600160a01b038216620002f55760405162461bcd60e51b81526004016200024b90620005a9565b506001600160a01b03166000908152602091909152604090205460ff1690565b8280546200032390620005eb565b90600052602060002090601f01602090048101928262000347576000855562000392565b82601f106200036257805160ff191683800117855562000392565b8280016001018555821562000392579182015b828111156200039257825182559160200191906001019062000375565b50620003a0929150620003a4565b5090565b5b80821115620003a05760008155600101620003a5565b600082601f830112620003cc578081fd5b81516001600160401b0380821115620003e957620003e962000628565b6040516020601f8401601f191682018101838111838210171562000411576200041162000628565b604052838252858401810187101562000428578485fd5b8492505b838310156200044b57858301810151828401820152918201916200042c565b838311156200045c57848185840101525b5095945050505050565b600080600080600060a086880312156200047e578081fd5b85516001600160401b038082111562000495578283fd5b620004a389838a01620003bb565b96506020880151915080821115620004b9578283fd5b620004c789838a01620003bb565b604089015190965091506001600160a01b0382168214620004e6578283fd5b606088015191945080821115620004fb578283fd5b6200050989838a01620003bb565b935060808801519150808211156200051f578283fd5b506200052e88828901620003bb565b9150509295509295909350565b6020808252601f908201527f526f6c65733a206163636f756e7420616c72656164792068617320726f6c6500604082015260600190565b6020808252601c908201527f4552433136353a20696e76616c696420696e7465726661636520696400000000604082015260600190565b60208082526022908201527f526f6c65733a206163636f756e7420697320746865207a65726f206164647265604082015261737360f01b606082015260800190565b6002810460018216806200060057607f821691505b602082108114156200062257634e487b7160e01b600052602260045260246000fd5b50919050565b634e487b7160e01b600052604160045260246000fd5b6131bf806200064e6000396000f3fe608060405234801561001057600080fd5b50600436106101f05760003560e01c8063715018a61161010f578063b9c4d9fb116100a2578063e8a3d48511610071578063e8a3d48514610423578063e985e9c51461042b578063eb12d61e1461043e578063f2fde38b14610451576101f0565b8063b9c4d9fb146103e0578063c0ac998314610400578063c87b56dd14610408578063e5c8b03d1461041b576101f0565b806395d89b41116100de57806395d89b411461039f57806399e0dd7c146103a7578063a22cb465146103ba578063b88d4fde146103cd576101f0565b8063715018a6146103695780637df73e27146103715780638da5cb5b14610384578063938e3d7b1461038c576101f0565b80632f745c59116101875780636308f1cd116101565780636308f1cd1461030f5780636352211e14610330578063672a94001461034357806370a0823114610356576101f0565b80632f745c59146102c357806342842e0e146102d657806342966c68146102e95780634f6ccce7146102fc576101f0565b80630e316ab7116101c35780630e316ab7146102685780630ebd4c7f1461027b57806318160ddd1461029b57806323b872dd146102b0576101f0565b806301ffc9a7146101f557806306fdde031461021e578063081812fc14610233578063095ea7b314610253575b600080fd5b61020861020336600461238c565b610464565b604051610215919061270a565b60405180910390f35b610226610483565b6040516102159190612733565b6102466102413660046123f7565b610511565b604051610215919061264d565b610266610261366004612361565b61055d565b005b61026661027636600461221f565b610642565b61028e6102893660046123f7565b61068d565b60405161021591906126f7565b6102a36107d9565b6040516102159190612fe5565b6102666102be366004612273565b6107df565b6102a36102d1366004612361565b61081c565b6102666102e4366004612273565b610890565b6102666102f73660046123f7565b6108ab565b6102a361030a3660046123f7565b6108db565b61032261031d36600461240f565b610936565b604051610215929190612661565b61024661033e3660046123f7565b61097c565b610266610351366004612430565b6109b7565b6102a361036436600461221f565b610a95565b610266610ade565b61020861037f36600461221f565b610b67565b610246610b74565b61026661039a3660046123c4565b610b83565b610226610bcb565b6102666103b53660046123c4565b610bd8565b6102666103c8366004612330565b610c20565b6102666103db3660046122b3565b610cee565b6103f36103ee3660046123f7565b610d2d565b60405161021591906126b6565b610226610e7e565b6102266104163660046123f7565b610e8b565b610266610ebb565b610226610ecd565b61020861043936600461223b565b610eda565b61026661044c36600461221f565b610f08565b61026661045f36600461221f565b610f50565b6001600160e01b03191660009081526002602052604090205460ff1690565b600e8054610490906130dc565b80601f01602080910402602001604051908101604052809291908181526020018280546104bc906130dc565b80156105095780601f106104de57610100808354040283529160200191610509565b820191906000526020600020905b8154815290600101906020018083116104ec57829003601f168201915b505050505081565b600061051c8261105c565b6105415760405162461bcd60e51b815260040161053890612c30565b60405180910390fd5b506000908152600760205260409020546001600160a01b031690565b60006105688261097c565b9050806001600160a01b0316836001600160a01b0316141561059c5760405162461bcd60e51b815260040161053890612e14565b806001600160a01b03166105ae611079565b6001600160a01b031614806105ca57506105ca81610439611079565b6105e65760405162461bcd60e51b815260040161053890612a50565b60008281526007602052604080822080546001600160a01b0319166001600160a01b0387811691821790925591518593918516917f8c5be1e5ebec7d5bd14f71427d1e84f3dd0314c0f7b2291e5b200ac8c7c3b92591a4505050565b61064a611079565b6001600160a01b031661065b610b74565b6001600160a01b0316146106815760405162461bcd60e51b815260040161053890612cc8565b61068a8161107d565b50565b6000818152601060209081526040808320805482518185028101850190935280835260609493849084015b82821015610700576000848152602090819020604080518082019091526002850290910180546001600160a01b031682526001908101548284015290835290920191016106b8565b5050505090506000815167ffffffffffffffff81111561073057634e487b7160e01b600052604160045260246000fd5b604051908082528060200260200182016040528015610759578160200160208202803683370190505b50905060005b82518110156107d15782818151811061078857634e487b7160e01b600052603260045260246000fd5b6020026020010151602001518282815181106107b457634e487b7160e01b600052603260045260246000fd5b6020908102919091010152806107c981613117565b91505061075f565b509392505050565b600c5490565b6107f06107ea611079565b826110bf565b61080c5760405162461bcd60e51b815260040161053890612e71565b610817838383611144565b505050565b600061082783610a95565b82106108455760405162461bcd60e51b81526004016105389061277d565b6001600160a01b0383166000908152600a6020526040902080548390811061087d57634e487b7160e01b600052603260045260246000fd5b9060005260206000200154905092915050565b61081783838360405180602001604052806000815250610cee565b6108b66107ea611079565b6108d25760405162461bcd60e51b815260040161053890612f88565b61068a81611163565b60006108e56107d9565b82106109035760405162461bcd60e51b815260040161053890612ece565b600c828154811061092457634e487b7160e01b600052603260045260246000fd5b90600052602060002001549050919050565b6010602052816000526040600020818154811061095257600080fd5b6000918252602090912060029091020180546001909101546001600160a01b039091169250905082565b6000818152600660205260408120546001600160a01b0316806109b15760405162461bcd60e51b815260040161053890612b0a565b92915050565b610a5c600130886040516020016109cf9291906125fa565b604051602081830303815290604052805190602001206040516020016109f5919061261c565b6040516020818303038152906040528051906020012087878760405160008152602001604052604051610a2b9493929190612715565b6020604051602081039080840390855afa158015610a4d573d6000803e3d6000fd5b50505060206040510351610b67565b610a785760405162461bcd60e51b815260040161053890612a19565b610a83338784611175565b610a8d868261147c565b505050505050565b60006001600160a01b038216610abd5760405162461bcd60e51b815260040161053890612aad565b6001600160a01b03821660009081526008602052604090206109b1906114af565b610ae6611079565b6001600160a01b0316610af7610b74565b6001600160a01b031614610b1d5760405162461bcd60e51b815260040161053890612cc8565b600080546040516001600160a01b03909116907f8be0079c531659141344cd1fd0a4f28419497f9722a3daafe3b4186f6b6457e0908390a3600080546001600160a01b0319169055565b60006109b16001836114b3565b6000546001600160a01b031690565b610b8b611079565b6001600160a01b0316610b9c610b74565b6001600160a01b031614610bc25760405162461bcd60e51b815260040161053890612cc8565b61068a816114fb565b600f8054610490906130dc565b610be0611079565b6001600160a01b0316610bf1610b74565b6001600160a01b031614610c175760405162461bcd60e51b815260040161053890612cc8565b61068a8161150e565b610c28611079565b6001600160a01b0316826001600160a01b03161415610c595760405162461bcd60e51b81526004016105389061295f565b8060096000610c66611079565b6001600160a01b03908116825260208083019390935260409182016000908120918716808252919093529120805460ff191692151592909217909155610caa611079565b6001600160a01b03167f17307eab39ab6107e8899845ad3d59bd9653f200f220920489ca2b5937696c3183604051610ce2919061270a565b60405180910390a35050565b610cff610cf9611079565b836110bf565b610d1b5760405162461bcd60e51b815260040161053890612e71565b610d2784848484611521565b50505050565b6000818152601060209081526040808320805482518185028101850190935280835260609493849084015b82821015610da0576000848152602090819020604080518082019091526002850290910180546001600160a01b03168252600190810154828401529083529092019101610d58565b5050505090506000815167ffffffffffffffff811115610dd057634e487b7160e01b600052604160045260246000fd5b604051908082528060200260200182016040528015610df9578160200160208202803683370190505b50905060005b82518110156107d157828181518110610e2857634e487b7160e01b600052603260045260246000fd5b602002602001015160000151828281518110610e5457634e487b7160e01b600052603260045260246000fd5b6001600160a01b039092166020928302919091019091015280610e7681613117565b915050610dff565b60048054610490906130dc565b6060610e968261105c565b610eb25760405162461bcd60e51b815260040161053890612db7565b6109b182611554565b610ecb610ec6611079565b61107d565b565b60038054610490906130dc565b6001600160a01b03918216600090815260096020908152604080832093909416825291909152205460ff1690565b610f10611079565b6001600160a01b0316610f21610b74565b6001600160a01b031614610f475760405162461bcd60e51b815260040161053890612cc8565b61068a8161168b565b610f58611079565b6001600160a01b0316610f69610b74565b6001600160a01b031614610f8f5760405162461bcd60e51b815260040161053890612cc8565b6001600160a01b038116610fb55760405162461bcd60e51b815260040161053890612837565b600080546040516001600160a01b03808516939216917f8be0079c531659141344cd1fd0a4f28419497f9722a3daafe3b4186f6b6457e091a3600080546001600160a01b0319166001600160a01b0392909216919091179055565b61101a82826114b3565b156110375760405162461bcd60e51b815260040161053890612746565b6001600160a01b0316600090815260209190915260409020805460ff19166001179055565b6000908152600660205260409020546001600160a01b0316151590565b3390565b6110886001826116cd565b6040516001600160a01b038216907f3525e22824a8a7df2c9a6029941c824cf95b6447f1e13d5128fd3826d35afe8b90600090a250565b60006110ca8261105c565b6110e65760405162461bcd60e51b8152600401610538906129cd565b60006110f18361097c565b9050806001600160a01b0316846001600160a01b0316148061112c5750836001600160a01b031661112184610511565b6001600160a01b0316145b8061113c575061113c8185610eda565b949350505050565b61114f838383611715565b611159838261181b565b6108178282611953565b61068a61116f8261097c565b82611991565b61117f83836119a4565b6000815167ffffffffffffffff8111156111a957634e487b7160e01b600052604160045260246000fd5b6040519080825280602002602001820160405280156111d2578160200160208202803683370190505b5090506000825167ffffffffffffffff8111156111ff57634e487b7160e01b600052604160045260246000fd5b604051908082528060200260200182016040528015611228578160200160208202803683370190505b50905060005b83518110156114315760006001600160a01b031684828151811061126257634e487b7160e01b600052603260045260246000fd5b6020026020010151600001516001600160a01b031614156112955760405162461bcd60e51b815260040161053890612b67565b8381815181106112b557634e487b7160e01b600052603260045260246000fd5b602002602001015160200151600014156112e15760405162461bcd60e51b8152600401610538906128cb565b6000858152601060205260409020845185908390811061131157634e487b7160e01b600052603260045260246000fd5b602090810291909101810151825460018082018555600094855293839020825160029092020180546001600160a01b0319166001600160a01b03909216919091178155910151910155835184908290811061137c57634e487b7160e01b600052603260045260246000fd5b6020026020010151600001518382815181106113a857634e487b7160e01b600052603260045260246000fd5b60200260200101906001600160a01b031690816001600160a01b0316815250508381815181106113e857634e487b7160e01b600052603260045260246000fd5b60200260200101516020015182828151811061141457634e487b7160e01b600052603260045260246000fd5b60209081029190910101528061142981613117565b91505061122e565b50825115611475577f99aba1d63749cfd5ad1afda7c4663840924d54eb5f005bbbeadedc6ec13674b284838360405161146c93929190612fee565b60405180910390a15b5050505050565b6114858261105c565b6114a15760405162461bcd60e51b815260040161053890612c7c565b6114ab82826119c1565b5050565b5490565b60006001600160a01b0382166114db5760405162461bcd60e51b815260040161053890612cfd565b506001600160a01b03166000908152602091909152604090205460ff1690565b80516114ab9060039060208401906120d7565b80516114ab9060049060208401906120d7565b61152c848484611144565b611538848484846119e0565b610d275760405162461bcd60e51b8152600401610538906127da565b600081815260056020526040902080546060916109b191611574906130dc565b80601f01602080910402602001604051908101604052809291908181526020018280546115a0906130dc565b80156115ed5780601f106115c2576101008083540402835291602001916115ed565b820191906000526020600020905b8154815290600101906020018083116115d057829003601f168201915b5050505050600480546115ff906130dc565b80601f016020809104026020016040519081016040528092919081815260200182805461162b906130dc565b80156116785780601f1061164d57610100808354040283529160200191611678565b820191906000526020600020905b81548152906001019060200180831161165b57829003601f168201915b5050505050611b2e90919063ffffffff16565b611696600182611010565b6040516001600160a01b038216907f47d1c22a25bb3a5d4e481b9b1e6944c2eade3181a0a20b495ed61d35b5323f2490600090a250565b6116d782826114b3565b6116f35760405162461bcd60e51b815260040161053890612b9e565b6001600160a01b0316600090815260209190915260409020805460ff19169055565b826001600160a01b03166117288261097c565b6001600160a01b03161461174e5760405162461bcd60e51b815260040161053890612d5a565b6001600160a01b0382166117745760405162461bcd60e51b815260040161053890612902565b61177d81611d25565b6001600160a01b038316600090815260086020526040902061179e90611d60565b6001600160a01b03821660009081526008602052604090206117bf90611d71565b60008181526006602052604080822080546001600160a01b0319166001600160a01b0386811691821790925591518493918716917fddf252ad1be2c89b69c2b068fc378daa952ba7f163c4a11628f55a4df523b3ef91a4505050565b6001600160a01b0382166000908152600a602052604081205461183f906001611d8e565b6000838152600b6020526040902054909150808214611902576001600160a01b0384166000908152600a6020526040812080548490811061189057634e487b7160e01b600052603260045260246000fd5b9060005260206000200154905080600a6000876001600160a01b03166001600160a01b0316815260200190815260200160002083815481106118e257634e487b7160e01b600052603260045260246000fd5b6000918252602080832090910192909255918252600b9052604090208190555b6001600160a01b0384166000908152600a6020526040902080548061193757634e487b7160e01b600052603160045260246000fd5b6001900381819060005260206000200160009055905550505050565b6001600160a01b039091166000908152600a602081815260408084208054868652600b84529185208290559282526001810183559183529091200155565b61199b8282611dc1565b6114ab81611ded565b6119ae8282611e24565b6119b88282611953565b6114ab81611eeb565b60008281526005602090815260409091208251610817928401906120d7565b60006119f4846001600160a01b0316611f2f565b611a005750600161113c565b6000806001600160a01b038616630a85bd0160e11b611a1d611079565b898888604051602401611a33949392919061267a565b60408051601f198184030181529181526020820180517bffffffffffffffffffffffffffffffffffffffffffffffffffffffff166001600160e01b0319909416939093179092529051611a8691906125de565b6000604051808303816000865af19150503d8060008114611ac3576040519150601f19603f3d011682016040523d82523d6000602084013e611ac8565b606091505b509150915081611afa57805115611ae25780518082602001fd5b60405162461bcd60e51b8152600401610538906127da565b600081806020019051810190611b1091906123a8565b6001600160e01b031916630a85bd0160e11b14935061113c92505050565b8051825160609184918491600091611b469190613081565b67ffffffffffffffff811115611b6c57634e487b7160e01b600052604160045260246000fd5b6040519080825280601f01601f191660200182016040528015611b96576020820181803683370190505b5090506000805b8451811015611c5957848181518110611bc657634e487b7160e01b600052603260045260246000fd5b01602001517fff00000000000000000000000000000000000000000000000000000000000000168383611bf881613117565b945081518110611c1857634e487b7160e01b600052603260045260246000fd5b60200101907effffffffffffffffffffffffffffffffffffffffffffffffffffffffffffff1916908160001a90535080611c5181613117565b915050611b9d565b5060005b8351811015611d1957838181518110611c8657634e487b7160e01b600052603260045260246000fd5b01602001517fff00000000000000000000000000000000000000000000000000000000000000168383611cb881613117565b945081518110611cd857634e487b7160e01b600052603260045260246000fd5b60200101907effffffffffffffffffffffffffffffffffffffffffffffffffffffffffffff1916908160001a90535080611d1181613117565b915050611c5d565b50909695505050505050565b6000818152600760205260409020546001600160a01b03161561068a57600090815260076020526040902080546001600160a01b0319169055565b8054611d6d906001611d8e565b9055565b6001816000016000828254611d869190613081565b909155505050565b600082821115611db05760405162461bcd60e51b815260040161053890612996565b611dba8284613099565b9392505050565b611dcb8282611f35565b611dd5828261181b565b6000818152600b60205260408120556114ab81611fed565b60008181526005602052604090208054611e06906130dc565b15905061068a57600081815260056020526040812061068a9161215b565b6001600160a01b038216611e4a5760405162461bcd60e51b815260040161053890612bfb565b611e538161105c565b15611e705760405162461bcd60e51b815260040161053890612894565b600081815260066020908152604080832080546001600160a01b0319166001600160a01b038716908117909155835260089091529020611eaf90611d71565b60405181906001600160a01b038416906000907fddf252ad1be2c89b69c2b068fc378daa952ba7f163c4a11628f55a4df523b3ef908290a45050565b600c80546000838152600d60205260408120829055600182018355919091527fdf6966c971051c3d54ec59162606531493a51404a002842f56009d7e5cf4a8c70155565b3b151590565b816001600160a01b0316611f488261097c565b6001600160a01b031614611f6e5760405162461bcd60e51b815260040161053890612f2b565b611f7781611d25565b6001600160a01b0382166000908152600860205260409020611f9890611d60565b60008181526006602052604080822080546001600160a01b0319169055518291906001600160a01b038516907fddf252ad1be2c89b69c2b068fc378daa952ba7f163c4a11628f55a4df523b3ef908390a45050565b600c54600090611ffe906001611d8e565b6000838152600d6020526040812054600c805493945090928490811061203457634e487b7160e01b600052603260045260246000fd5b9060005260206000200154905080600c838154811061206357634e487b7160e01b600052603260045260246000fd5b6000918252602080832090910192909255828152600d90915260409020829055600c8054806120a257634e487b7160e01b600052603160045260246000fd5b600190038181906000526020600020016000905590556000600d60008681526020019081526020016000208190555050505050565b8280546120e3906130dc565b90600052602060002090601f016020900481019282612105576000855561214b565b82601f1061211e57805160ff191683800117855561214b565b8280016001018555821561214b579182015b8281111561214b578251825591602001919060010190612130565b50612157929150612193565b5090565b508054612167906130dc565b6000825580601f10612179575061068a565b601f01602090049060005260206000209081019061068a91905b5b808211156121575760008155600101612194565b600067ffffffffffffffff8311156121c2576121c2613148565b6121d5601f8401601f1916602001613057565b90508281528383830111156121e957600080fd5b828260208301376000602084830101529392505050565b600082601f830112612210578081fd5b611dba838335602085016121a8565b600060208284031215612230578081fd5b8135611dba8161315e565b6000806040838503121561224d578081fd5b82356122588161315e565b915060208301356122688161315e565b809150509250929050565b600080600060608486031215612287578081fd5b83356122928161315e565b925060208401356122a28161315e565b929592945050506040919091013590565b600080600080608085870312156122c8578081fd5b84356122d38161315e565b935060208501356122e38161315e565b925060408501359150606085013567ffffffffffffffff811115612305578182fd5b8501601f81018713612315578182fd5b612324878235602084016121a8565b91505092959194509250565b60008060408385031215612342578182fd5b823561234d8161315e565b915060208301358015158114612268578182fd5b60008060408385031215612373578182fd5b823561237e8161315e565b946020939093013593505050565b60006020828403121561239d578081fd5b8135611dba81613173565b6000602082840312156123b9578081fd5b8151611dba81613173565b6000602082840312156123d5578081fd5b813567ffffffffffffffff8111156123eb578182fd5b61113c84828501612200565b600060208284031215612408578081fd5b5035919050565b60008060408385031215612421578182fd5b50508035926020909101359150565b60008060008060008060c08789031215612448578384fd5b86359550602087013560ff8116811461245f578485fd5b94506040870135935060608701359250608087013567ffffffffffffffff80821115612489578384fd5b818901915089601f83011261249c578384fd5b8135818111156124ae576124ae613148565b6124bc602080830201613057565b80828252602082019150602085018d60206040860288010111156124de578788fd5b8795505b83861015612546576040818f0312156124f9578788fd5b60405160408101818110878211171561251457612514613148565b604052612521823561315e565b81358152602080830135818301529084526001969096019592909201916040016124e2565b509550505060a089013591508082111561255e578283fd5b5061256b89828a01612200565b9150509295509295509295565b6000815180845260208085019450808401835b838110156125a75781518752958201959082019060010161258b565b509495945050505050565b600081518084526125ca8160208601602086016130b0565b601f01601f19169290920160200192915050565b600082516125f08184602087016130b0565b9190910192915050565b60609290921b6bffffffffffffffffffffffff19168252601482015260340190565b7f19457468657265756d205369676e6564204d6573736167653a0a3332000000008152601c810191909152603c0190565b6001600160a01b0391909116815260200190565b6001600160a01b03929092168252602082015260400190565b60006001600160a01b038087168352808616602084015250836040830152608060608301526126ac60808301846125b2565b9695505050505050565b6020808252825182820181905260009190848201906040850190845b81811015611d195783516001600160a01b0316835292840192918401916001016126d2565b600060208252611dba6020830184612578565b901515815260200190565b93845260ff9290921660208401526040830152606082015260800190565b600060208252611dba60208301846125b2565b6020808252601f908201527f526f6c65733a206163636f756e7420616c72656164792068617320726f6c6500604082015260600190565b6020808252602b908201527f455243373231456e756d657261626c653a206f776e657220696e646578206f7560408201527f74206f6620626f756e6473000000000000000000000000000000000000000000606082015260800190565b60208082526032908201527f4552433732313a207472616e7366657220746f206e6f6e20455243373231526560408201527f63656976657220696d706c656d656e7465720000000000000000000000000000606082015260800190565b60208082526026908201527f4f776e61626c653a206e6577206f776e657220697320746865207a65726f206160408201527f6464726573730000000000000000000000000000000000000000000000000000606082015260800190565b6020808252601c908201527f4552433732313a20746f6b656e20616c7265616479206d696e74656400000000604082015260600190565b60208082526016908201527f4665652076616c75652020626520706f73697469766500000000000000000000604082015260600190565b60208082526024908201527f4552433732313a207472616e7366657220746f20746865207a65726f2061646460408201527f7265737300000000000000000000000000000000000000000000000000000000606082015260800190565b60208082526019908201527f4552433732313a20617070726f766520746f2063616c6c657200000000000000604082015260600190565b6020808252601e908201527f536166654d6174683a207375627472616374696f6e206f766572666c6f770000604082015260600190565b6020808252602c908201527f4552433732313a206f70657261746f7220717565727920666f72206e6f6e657860408201526b34b9ba32b73a103a37b5b2b760a11b606082015260800190565b60208082526019908201527f6f776e65722073686f756c64207369676e20746f6b656e496400000000000000604082015260600190565b60208082526038908201527f4552433732313a20617070726f76652063616c6c6572206973206e6f74206f7760408201527f6e6572206e6f7220617070726f76656420666f7220616c6c0000000000000000606082015260800190565b6020808252602a908201527f4552433732313a2062616c616e636520717565727920666f7220746865207a6560408201527f726f206164647265737300000000000000000000000000000000000000000000606082015260800190565b60208082526029908201527f4552433732313a206f776e657220717565727920666f72206e6f6e657869737460408201527f656e7420746f6b656e0000000000000000000000000000000000000000000000606082015260800190565b60208082526015908201527f526563697069656e74202062652070726573656e740000000000000000000000604082015260600190565b60208082526021908201527f526f6c65733a206163636f756e7420646f6573206e6f74206861766520726f6c60408201527f6500000000000000000000000000000000000000000000000000000000000000606082015260800190565b6020808252818101527f4552433732313a206d696e7420746f20746865207a65726f2061646472657373604082015260600190565b6020808252602c908201527f4552433732313a20617070726f76656420717565727920666f72206e6f6e657860408201526b34b9ba32b73a103a37b5b2b760a11b606082015260800190565b6020808252602c908201527f4552433732314d657461646174613a2055524920736574206f66206e6f6e657860408201526b34b9ba32b73a103a37b5b2b760a11b606082015260800190565b6020808252818101527f4f776e61626c653a2063616c6c6572206973206e6f7420746865206f776e6572604082015260600190565b60208082526022908201527f526f6c65733a206163636f756e7420697320746865207a65726f20616464726560408201527f7373000000000000000000000000000000000000000000000000000000000000606082015260800190565b60208082526029908201527f4552433732313a207472616e73666572206f6620746f6b656e2074686174206960408201527f73206e6f74206f776e0000000000000000000000000000000000000000000000606082015260800190565b6020808252602f908201527f4552433732314d657461646174613a2055524920717565727920666f72206e6f60408201527f6e6578697374656e7420746f6b656e0000000000000000000000000000000000606082015260800190565b60208082526021908201527f4552433732313a20617070726f76616c20746f2063757272656e74206f776e6560408201527f7200000000000000000000000000000000000000000000000000000000000000606082015260800190565b60208082526031908201527f4552433732313a207472616e736665722063616c6c6572206973206e6f74206f60408201527f776e6572206e6f7220617070726f766564000000000000000000000000000000606082015260800190565b6020808252602c908201527f455243373231456e756d657261626c653a20676c6f62616c20696e646578206f60408201527f7574206f6620626f756e64730000000000000000000000000000000000000000606082015260800190565b60208082526025908201527f4552433732313a206275726e206f6620746f6b656e2074686174206973206e6f60408201527f74206f776e000000000000000000000000000000000000000000000000000000606082015260800190565b60208082526030908201527f4552433732314275726e61626c653a2063616c6c6572206973206e6f74206f7760408201527f6e6572206e6f7220617070726f76656400000000000000000000000000000000606082015260800190565b90815260200190565b60006060820185835260206060818501528186518084526080860191508288019350845b818110156130375784516001600160a01b031683529383019391830191600101613012565b5050848103604086015261304b8187612578565b98975050505050505050565b60405181810167ffffffffffffffff8111828210171561307957613079613148565b604052919050565b6000821982111561309457613094613132565b500190565b6000828210156130ab576130ab613132565b500390565b60005b838110156130cb5781810151838201526020016130b3565b83811115610d275750506000910152565b6002810460018216806130f057607f821691505b6020821081141561311157634e487b7160e01b600052602260045260246000fd5b50919050565b600060001982141561312b5761312b613132565b5060010190565b634e487b7160e01b600052601160045260246000fd5b634e487b7160e01b600052604160045260246000fd5b6001600160a01b038116811461068a57600080fd5b6001600160e01b03198116811461068a57600080fdfea2646970667358221220721cdf6ae18162d377b7a7ced5b969ac8d3451ce664dc355dec22086659e1f3b64736f6c63430008000033",
  "immutableReferences": {},
  "source": "// SPDX-License-Identifier: MIT\npragma solidity >=0.4.22 <0.9.0;\npragma experimental ABIEncoderV2;\n\nimport \"../lib/interface/IERC721.sol\";\nimport \"../lib/contracts/ERC721Base.sol\";\nimport \"../lib/utils/SignerRole.sol\";\nimport \"../lib/utils/Ownable.sol\";\n\n/**\n * @title NFT721\n * @dev anyone can mint token.\n */\ncontract NFT721 is Ownable, SignerRole, IERC721, ERC721Base {\n\n    constructor (string memory name, string memory symbol, address signer, string memory contractURI, string memory tokenURIPrefix) ERC721Base(name, symbol, contractURI, tokenURIPrefix) {\n        _registerInterface(bytes4(keccak256('MINT_WITH_ADDRESS')));\n        _addSigner(signer);\n        // transferOwnership(newOwner);\n    }\n\n    function addSigner(address account) public override onlyOwner {\n        _addSigner(account);\n    }\n\n    function removeSigner(address account) public onlyOwner {\n        _removeSigner(account);\n    }\n\n    function mint(uint256 tokenId, uint8 v, bytes32 r, bytes32 s, Fee[] memory _fees, string memory tokenURI) public {\n        require(isSigner(ecrecover(keccak256(abi.encodePacked(\"\\x19Ethereum Signed Message:\\n32\", keccak256(abi.encodePacked(this, tokenId)))), v, r, s)), \"owner should sign tokenId\");\n        _mint(msg.sender, tokenId, _fees);\n        _setTokenURI(tokenId, tokenURI);\n    }\n\n    function setTokenURIPrefix(string memory tokenURIPrefix) public onlyOwner {\n        _setTokenURIPrefix(tokenURIPrefix);\n    }\n\n    function setContractURI(string memory contractURI) public onlyOwner {\n        _setContractURI(contractURI);\n    }\n}\n",
  "sourcePath": "/Users/huzongming/Documents/fingernft-main/nft-contract/contracts/token/NFT721.sol",
  "compiler": {
    "name": "solc",
    "version": "0.8.0+commit.c7dfd78e.Emscripten.clang"
  },
  "schemaVersion": "3.4.7",
  "updatedAt": "2022-04-16T12:14:14.558Z",
  "devdoc": {
    "details": "anyone can mint token.",
    "kind": "dev",
    "methods": {
      "approve(address,uint256)": {
        "details": "Approves another address to transfer the given token ID The zero address indicates there is no approved address. There can only be one approved address per token at a given time. Can only be called by the token owner or an approved operator.",
        "params": {
          "to": "address to be approved for the given token ID",
          "tokenId": "uint256 ID of the token to be approved"
        }
      },
      "balanceOf(address)": {
        "details": "Gets the balance of the specified address.",
        "params": {
          "owner": "address to query the balance of"
        },
        "returns": {
          "_0": "uint256 representing the amount owned by the passed address"
        }
      },
      "burn(uint256)": {
        "details": "Burns a specific ERC721 token.",
        "params": {
          "tokenId": "uint256 id of the ERC721 token to be burned."
        }
      },
      "getApproved(uint256)": {
        "details": "Gets the approved address for a token ID, or zero if no address set Reverts if the token ID does not exist.",
        "params": {
          "tokenId": "uint256 ID of the token to query the approval of"
        },
        "returns": {
          "_0": "address currently approved for the given token ID"
        }
      },
      "isApprovedForAll(address,address)": {
        "details": "Tells whether an operator is approved by a given owner.",
        "params": {
          "operator": "operator address which you want to query the approval of",
          "owner": "owner address which you want to query the approval of"
        },
        "returns": {
          "_0": "bool whether the given operator is approved by the given owner"
        }
      },
      "owner()": {
        "details": "Returns the address of the current owner."
      },
      "ownerOf(uint256)": {
        "details": "Gets the owner of the specified token ID.",
        "params": {
          "tokenId": "uint256 ID of the token to query the owner of"
        },
        "returns": {
          "_0": "address currently marked as the owner of the given token ID"
        }
      },
      "renounceOwnership()": {
        "details": "Leaves the contract without owner. It will not be possible to call `onlyOwner` functions anymore. Can only be called by the current owner. NOTE: Renouncing ownership will leave the contract without an owner, thereby removing any functionality that is only available to the owner."
      },
      "safeTransferFrom(address,address,uint256)": {
        "details": "Safely transfers the ownership of a given token ID to another address If the target address is a contract, it must implement {IERC721Receiver-onERC721Received}, which is called upon a safe transfer, and return the magic value `bytes4(keccak256(\"onERC721Received(address,address,uint256,bytes)\"))`; otherwise, the transfer is reverted. Requires the msg.sender to be the owner, approved, or operator",
        "params": {
          "from": "current owner of the token",
          "to": "address to receive the ownership of the given token ID",
          "tokenId": "uint256 ID of the token to be transferred"
        }
      },
      "safeTransferFrom(address,address,uint256,bytes)": {
        "details": "Safely transfers the ownership of a given token ID to another address If the target address is a contract, it must implement {IERC721Receiver-onERC721Received}, which is called upon a safe transfer, and return the magic value `bytes4(keccak256(\"onERC721Received(address,address,uint256,bytes)\"))`; otherwise, the transfer is reverted. Requires the _msgSender() to be the owner, approved, or operator",
        "params": {
          "_data": "bytes data to send along with a safe transfer check",
          "from": "current owner of the token",
          "to": "address to receive the ownership of the given token ID",
          "tokenId": "uint256 ID of the token to be transferred"
        }
      },
      "setApprovalForAll(address,bool)": {
        "details": "Sets or unsets the approval of a given operator An operator is allowed to transfer all tokens of the sender on their behalf.",
        "params": {
          "approved": "representing the status of the approval to be set",
          "to": "operator address to set the approval"
        }
      },
      "supportsInterface(bytes4)": {
        "details": "See {IERC165-supportsInterface}. Time complexity O(1), guaranteed to always use less than 30 000 gas."
      },
      "tokenByIndex(uint256)": {
        "details": "Gets the token ID at a given index of all the tokens in this contract Reverts if the index is greater or equal to the total number of tokens.",
        "params": {
          "index": "uint256 representing the index to be accessed of the tokens list"
        },
        "returns": {
          "_0": "uint256 token ID at the given index of the tokens list"
        }
      },
      "tokenOfOwnerByIndex(address,uint256)": {
        "details": "Gets the token ID at a given index of the tokens list of the requested owner.",
        "params": {
          "index": "uint256 representing the index to be accessed of the requested tokens list",
          "owner": "address owning the tokens list to be accessed"
        },
        "returns": {
          "_0": "uint256 token ID at the given index of the tokens list owned by the requested address"
        }
      },
      "tokenURI(uint256)": {
        "details": "Returns an URI for a given token ID. Throws if the token ID does not exist. May return an empty string.",
        "params": {
          "tokenId": "uint256 ID of the token to query"
        }
      },
      "totalSupply()": {
        "details": "Gets the total amount of tokens stored by the contract.",
        "returns": {
          "_0": "uint256 representing the total amount of tokens"
        }
      },
      "transferFrom(address,address,uint256)": {
        "details": "Transfers the ownership of a given token ID to another address. Usage of this method is discouraged, use {safeTransferFrom} whenever possible. Requires the msg.sender to be the owner, approved, or operator.",
        "params": {
          "from": "current owner of the token",
          "to": "address to receive the ownership of the given token ID",
          "tokenId": "uint256 ID of the token to be transferred"
        }
      },
      "transferOwnership(address)": {
        "details": "Transfers ownership of the contract to a new account (`newOwner`). Can only be called by the current owner."
      }
    },
    "title": "NFT721",
    "version": 1
  },
  "userdoc": {
    "kind": "user",
    "methods": {},
    "version": 1
  }
}