{
  "contractName": "NftExchange",
  "abi": [
    {
      "inputs": [
        {
          "internalType": "contract TransferProxy",
          "name": "_transferProxy",
          "type": "address"
        },
        {
          "internalType": "contract TransferProxyForDeprecated",
          "name": "_transferProxyForDeprecated",
          "type": "address"
        },
        {
          "internalType": "contract ERC20TransferProxy",
          "name": "_erc20TransferProxy",
          "type": "address"
        },
        {
          "internalType": "contract ExchangeState",
          "name": "_state",
          "type": "address"
        },
        {
          "internalType": "contract ExchangeOrdersHolder",
          "name": "_ordersHolder",
          "type": "address"
        },
        {
          "internalType": "address payable",
          "name": "_beneficiary",
          "type": "address"
        },
        {
          "internalType": "address",
          "name": "_buyerFeeSigner",
          "type": "address"
        }
      ],
      "stateMutability": "nonpayable",
      "type": "constructor"
    },
    {
      "anonymous": false,
      "inputs": [
        {
          "indexed": true,
          "internalType": "address",
          "name": "sellToken",
          "type": "address"
        },
        {
          "indexed": true,
          "internalType": "uint256",
          "name": "sellTokenId",
          "type": "uint256"
        },
        {
          "indexed": false,
          "internalType": "uint256",
          "name": "sellValue",
          "type": "uint256"
        },
        {
          "indexed": false,
          "internalType": "address",
          "name": "owner",
          "type": "address"
        },
        {
          "indexed": false,
          "internalType": "address",
          "name": "buyToken",
          "type": "address"
        },
        {
          "indexed": false,
          "internalType": "uint256",
          "name": "buyTokenId",
          "type": "uint256"
        },
        {
          "indexed": false,
          "internalType": "uint256",
          "name": "buyValue",
          "type": "uint256"
        },
        {
          "indexed": false,
          "internalType": "address",
          "name": "buyer",
          "type": "address"
        },
        {
          "indexed": false,
          "internalType": "uint256",
          "name": "amount",
          "type": "uint256"
        },
        {
          "indexed": false,
          "internalType": "uint256",
          "name": "salt",
          "type": "uint256"
        }
      ],
      "name": "Buy",
      "type": "event"
    },
    {
      "anonymous": false,
      "inputs": [
        {
          "indexed": true,
          "internalType": "address",
          "name": "sellToken",
          "type": "address"
        },
        {
          "indexed": true,
          "internalType": "uint256",
          "name": "sellTokenId",
          "type": "uint256"
        },
        {
          "indexed": false,
          "internalType": "address",
          "name": "owner",
          "type": "address"
        },
        {
          "indexed": false,
          "internalType": "address",
          "name": "buyToken",
          "type": "address"
        },
        {
          "indexed": false,
          "internalType": "uint256",
          "name": "buyTokenId",
          "type": "uint256"
        },
        {
          "indexed": false,
          "internalType": "uint256",
          "name": "salt",
          "type": "uint256"
        }
      ],
      "name": "Cancel",
      "type": "event"
    },
    {
      "anonymous": false,
      "inputs": [
        {
          "indexed": true,
          "internalType": "address",
          "name": "previousOwner",
          "type": "address"
        },
        {
          "indexed": true,
          "internalType": "address",
          "name": "newOwner",
          "type": "address"
        }
      ],
      "name": "OwnershipTransferred",
      "type": "event"
    },
    {
      "inputs": [],
      "name": "beneficiary",
      "outputs": [
        {
          "internalType": "address payable",
          "name": "",
          "type": "address"
        }
      ],
      "stateMutability": "view",
      "type": "function"
    },
    {
      "inputs": [],
      "name": "buyerFeeSigner",
      "outputs": [
        {
          "internalType": "address",
          "name": "",
          "type": "address"
        }
      ],
      "stateMutability": "view",
      "type": "function"
    },
    {
      "inputs": [],
      "name": "erc20TransferProxy",
      "outputs": [
        {
          "internalType": "contract ERC20TransferProxy",
          "name": "",
          "type": "address"
        }
      ],
      "stateMutability": "view",
      "type": "function"
    },
    {
      "inputs": [],
      "name": "ordersHolder",
      "outputs": [
        {
          "internalType": "contract ExchangeOrdersHolder",
          "name": "",
          "type": "address"
        }
      ],
      "stateMutability": "view",
      "type": "function"
    },
    {
      "inputs": [],
      "name": "owner",
      "outputs": [
        {
          "internalType": "address",
          "name": "",
          "type": "address"
        }
      ],
      "stateMutability": "view",
      "type": "function"
    },
    {
      "inputs": [],
      "name": "renounceOwnership",
      "outputs": [],
      "stateMutability": "nonpayable",
      "type": "function"
    },
    {
      "inputs": [],
      "name": "state",
      "outputs": [
        {
          "internalType": "contract ExchangeState",
          "name": "",
          "type": "address"
        }
      ],
      "stateMutability": "view",
      "type": "function"
    },
    {
      "inputs": [
        {
          "internalType": "address",
          "name": "newOwner",
          "type": "address"
        }
      ],
      "name": "transferOwnership",
      "outputs": [],
      "stateMutability": "nonpayable",
      "type": "function"
    },
    {
      "inputs": [],
      "name": "transferProxy",
      "outputs": [
        {
          "internalType": "contract TransferProxy",
          "name": "",
          "type": "address"
        }
      ],
      "stateMutability": "view",
      "type": "function"
    },
    {
      "inputs": [],
      "name": "transferProxyForDeprecated",
      "outputs": [
        {
          "internalType": "contract TransferProxyForDeprecated",
          "name": "",
          "type": "address"
        }
      ],
      "stateMutability": "view",
      "type": "function"
    },
    {
      "inputs": [
        {
          "internalType": "address payable",
          "name": "newBeneficiary",
          "type": "address"
        }
      ],
      "name": "setBeneficiary",
      "outputs": [],
      "stateMutability": "nonpayable",
      "type": "function"
    },
    {
      "inputs": [
        {
          "internalType": "address",
          "name": "newBuyerFeeSigner",
          "type": "address"
        }
      ],
      "name": "setBuyerFeeSigner",
      "outputs": [],
      "stateMutability": "nonpayable",
      "type": "function"
    },
    {
      "inputs": [
        {
          "components": [
            {
              "components": [
                {
                  "internalType": "address",
                  "name": "owner",
                  "type": "address"
                },
                {
                  "internalType": "uint256",
                  "name": "salt",
                  "type": "uint256"
                },
                {
                  "components": [
                    {
                      "internalType": "address",
                      "name": "token",
                      "type": "address"
                    },
                    {
                      "internalType": "uint256",
                      "name": "tokenId",
                      "type": "uint256"
                    },
                    {
                      "internalType": "enum ExchangeDomain.AssetType",
                      "name": "assetType",
                      "type": "uint8"
                    }
                  ],
                  "internalType": "struct ExchangeDomain.Asset",
                  "name": "sellAsset",
                  "type": "tuple"
                },
                {
                  "components": [
                    {
                      "internalType": "address",
                      "name": "token",
                      "type": "address"
                    },
                    {
                      "internalType": "uint256",
                      "name": "tokenId",
                      "type": "uint256"
                    },
                    {
                      "internalType": "enum ExchangeDomain.AssetType",
                      "name": "assetType",
                      "type": "uint8"
                    }
                  ],
                  "internalType": "struct ExchangeDomain.Asset",
                  "name": "buyAsset",
                  "type": "tuple"
                }
              ],
              "internalType": "struct ExchangeDomain.OrderKey",
              "name": "key",
              "type": "tuple"
            },
            {
              "internalType": "uint256",
              "name": "selling",
              "type": "uint256"
            },
            {
              "internalType": "uint256",
              "name": "buying",
              "type": "uint256"
            },
            {
              "internalType": "uint256",
              "name": "sellerFee",
              "type": "uint256"
            }
          ],
          "internalType": "struct ExchangeDomain.Order",
          "name": "order",
          "type": "tuple"
        },
        {
          "components": [
            {
              "internalType": "uint8",
              "name": "v",
              "type": "uint8"
            },
            {
              "internalType": "bytes32",
              "name": "r",
              "type": "bytes32"
            },
            {
              "internalType": "bytes32",
              "name": "s",
              "type": "bytes32"
            }
          ],
          "internalType": "struct ExchangeDomain.Sig",
          "name": "sig",
          "type": "tuple"
        },
        {
          "internalType": "uint256",
          "name": "buyerFee",
          "type": "uint256"
        },
        {
          "components": [
            {
              "internalType": "uint8",
              "name": "v",
              "type": "uint8"
            },
            {
              "internalType": "bytes32",
              "name": "r",
              "type": "bytes32"
            },
            {
              "internalType": "bytes32",
              "name": "s",
              "type": "bytes32"
            }
          ],
          "internalType": "struct ExchangeDomain.Sig",
          "name": "buyerFeeSig",
          "type": "tuple"
        },
        {
          "internalType": "uint256",
          "name": "amount",
          "type": "uint256"
        },
        {
          "internalType": "address",
          "name": "buyer",
          "type": "address"
        }
      ],
      "name": "exchange",
      "outputs": [],
      "stateMutability": "payable",
      "type": "function"
    },
    {
      "inputs": [
        {
          "components": [
            {
              "internalType": "address",
              "name": "owner",
              "type": "address"
            },
            {
              "internalType": "uint256",
              "name": "salt",
              "type": "uint256"
            },
            {
              "components": [
                {
                  "internalType": "address",
                  "name": "token",
                  "type": "address"
                },
                {
                  "internalType": "uint256",
                  "name": "tokenId",
                  "type": "uint256"
                },
                {
                  "internalType": "enum ExchangeDomain.AssetType",
                  "name": "assetType",
                  "type": "uint8"
                }
              ],
              "internalType": "struct ExchangeDomain.Asset",
              "name": "sellAsset",
              "type": "tuple"
            },
            {
              "components": [
                {
                  "internalType": "address",
                  "name": "token",
                  "type": "address"
                },
                {
                  "internalType": "uint256",
                  "name": "tokenId",
                  "type": "uint256"
                },
                {
                  "internalType": "enum ExchangeDomain.AssetType",
                  "name": "assetType",
                  "type": "uint8"
                }
              ],
              "internalType": "struct ExchangeDomain.Asset",
              "name": "buyAsset",
              "type": "tuple"
            }
          ],
          "internalType": "struct ExchangeDomain.OrderKey",
          "name": "key",
          "type": "tuple"
        }
      ],
      "name": "cancel",
      "outputs": [],
      "stateMutability": "nonpayable",
      "type": "function"
    },
    {
      "inputs": [
        {
          "components": [
            {
              "components": [
                {
                  "internalType": "address",
                  "name": "owner",
                  "type": "address"
                },
                {
                  "internalType": "uint256",
                  "name": "salt",
                  "type": "uint256"
                },
                {
                  "components": [
                    {
                      "internalType": "address",
                      "name": "token",
                      "type": "address"
                    },
                    {
                      "internalType": "uint256",
                      "name": "tokenId",
                      "type": "uint256"
                    },
                    {
                      "internalType": "enum ExchangeDomain.AssetType",
                      "name": "assetType",
                      "type": "uint8"
                    }
                  ],
                  "internalType": "struct ExchangeDomain.Asset",
                  "name": "sellAsset",
                  "type": "tuple"
                },
                {
                  "components": [
                    {
                      "internalType": "address",
                      "name": "token",
                      "type": "address"
                    },
                    {
                      "internalType": "uint256",
                      "name": "tokenId",
                      "type": "uint256"
                    },
                    {
                      "internalType": "enum ExchangeDomain.AssetType",
                      "name": "assetType",
                      "type": "uint8"
                    }
                  ],
                  "internalType": "struct ExchangeDomain.Asset",
                  "name": "buyAsset",
                  "type": "tuple"
                }
              ],
              "internalType": "struct ExchangeDomain.OrderKey",
              "name": "key",
              "type": "tuple"
            },
            {
              "internalType": "uint256",
              "name": "selling",
              "type": "uint256"
            },
            {
              "internalType": "uint256",
              "name": "buying",
              "type": "uint256"
            },
            {
              "internalType": "uint256",
              "name": "sellerFee",
              "type": "uint256"
            }
          ],
          "internalType": "struct ExchangeDomain.Order",
          "name": "order",
          "type": "tuple"
        },
        {
          "internalType": "uint256",
          "name": "fee",
          "type": "uint256"
        }
      ],
      "name": "prepareBuyerFeeMessage",
      "outputs": [
        {
          "internalType": "string",
          "name": "",
          "type": "string"
        }
      ],
      "stateMutability": "pure",
      "type": "function"
    },
    {
      "inputs": [
        {
          "components": [
            {
              "components": [
                {
                  "internalType": "address",
                  "name": "owner",
                  "type": "address"
                },
                {
                  "internalType": "uint256",
                  "name": "salt",
                  "type": "uint256"
                },
                {
                  "components": [
                    {
                      "internalType": "address",
                      "name": "token",
                      "type": "address"
                    },
                    {
                      "internalType": "uint256",
                      "name": "tokenId",
                      "type": "uint256"
                    },
                    {
                      "internalType": "enum ExchangeDomain.AssetType",
                      "name": "assetType",
                      "type": "uint8"
                    }
                  ],
                  "internalType": "struct ExchangeDomain.Asset",
                  "name": "sellAsset",
                  "type": "tuple"
                },
                {
                  "components": [
                    {
                      "internalType": "address",
                      "name": "token",
                      "type": "address"
                    },
                    {
                      "internalType": "uint256",
                      "name": "tokenId",
                      "type": "uint256"
                    },
                    {
                      "internalType": "enum ExchangeDomain.AssetType",
                      "name": "assetType",
                      "type": "uint8"
                    }
                  ],
                  "internalType": "struct ExchangeDomain.Asset",
                  "name": "buyAsset",
                  "type": "tuple"
                }
              ],
              "internalType": "struct ExchangeDomain.OrderKey",
              "name": "key",
              "type": "tuple"
            },
            {
              "internalType": "uint256",
              "name": "selling",
              "type": "uint256"
            },
            {
              "internalType": "uint256",
              "name": "buying",
              "type": "uint256"
            },
            {
              "internalType": "uint256",
              "name": "sellerFee",
              "type": "uint256"
            }
          ],
          "internalType": "struct ExchangeDomain.Order",
          "name": "order",
          "type": "tuple"
        }
      ],
      "name": "prepareMessage",
      "outputs": [
        {
          "internalType": "string",
          "name": "",
          "type": "string"
        }
      ],
      "stateMutability": "pure",
      "type": "function"
    }
  ],
  "bytecode": "0x60806040523480156200001157600080fd5b5060405162002c9c38038062002c9c833981016040819052620000349162000110565b6000620000406200010c565b600080546001600160a01b0319166001600160a01b0383169081178255604051929350917f8be0079c531659141344cd1fd0a4f28419497f9722a3daafe3b4186f6b6457e0908290a350600380546001600160a01b03199081166001600160a01b03998a1617909155600480548216978916979097179096556005805487169588169590951790945560068054861693871693909317909255600780548516918616919091179055600180548416918516919091179055600280549092169216919091179055620001d3565b3390565b600080600080600080600060e0888a0312156200012b578283fd5b87516200013881620001ba565b60208901519097506200014b81620001ba565b60408901519096506200015e81620001ba565b60608901519095506200017181620001ba565b60808901519094506200018481620001ba565b60a08901519093506200019781620001ba565b60c0890151909250620001aa81620001ba565b8091505092959891949750929550565b6001600160a01b0381168114620001d057600080fd5b50565b612ab980620001e36000396000f3fe6080604052600436106100f35760003560e01c8063715018a61161008a578063c19d93fb11610059578063c19d93fb14610243578063ca120b1f14610258578063f2fde38b14610278578063fee03e9e14610298576100f3565b8063715018a6146101f15780638da5cb5b146102065780639704dc441461021b5780639cec639214610230576100f3565b806338af3eed116100c657806338af3eed146101925780634df97bc5146101a757806355d5d326146101bc5780636e667db3146101dc576100f3565b806302329e10146100f8578063049944b6146101235780631b4c9874146101505780631c31f71014610170575b600080fd5b34801561010457600080fd5b5061010d6102ad565b60405161011a91906123b2565b60405180910390f35b34801561012f57600080fd5b5061014361013e3660046121fe565b6102bc565b60405161011a91906124a7565b34801561015c57600080fd5b5061014361016b36600461221a565b6102f5565b34801561017c57600080fd5b5061019061018b366004611fc4565b610316565b005b34801561019e57600080fd5b5061010d61038d565b3480156101b357600080fd5b5061010d61039c565b3480156101c857600080fd5b506101906101d7366004611fc4565b6103ab565b3480156101e857600080fd5b5061010d610419565b3480156101fd57600080fd5b50610190610428565b34801561021257600080fd5b5061010d6104be565b34801561022757600080fd5b5061010d6104cd565b61019061023e366004612185565b6104dc565b34801561024f57600080fd5b5061010d61072b565b34801561026457600080fd5b50610190610273366004612157565b61073a565b34801561028457600080fd5b50610190610293366004611fc4565b610848565b3480156102a457600080fd5b5061010d610915565b6004546001600160a01b031681565b60606102ed826040516020016102d291906128ce565b60405160208183030381529060405280519060200120610924565b90505b919050565b606061030d83836040516020016102d29291906128dd565b90505b92915050565b61031e610ae5565b6001600160a01b031661032f6104be565b6001600160a01b03161461035e5760405162461bcd60e51b815260040161035590612724565b60405180910390fd5b6001805473ffffffffffffffffffffffffffffffffffffffff19166001600160a01b0392909216919091179055565b6001546001600160a01b031681565b6002546001600160a01b031681565b6103b3610ae5565b6001600160a01b03166103c46104be565b6001600160a01b0316146103ea5760405162461bcd60e51b815260040161035590612724565b6002805473ffffffffffffffffffffffffffffffffffffffff19166001600160a01b0392909216919091179055565b6003546001600160a01b031681565b610430610ae5565b6001600160a01b03166104416104be565b6001600160a01b0316146104675760405162461bcd60e51b815260040161035590612724565b600080546040516001600160a01b03909116907f8be0079c531659141344cd1fd0a4f28419497f9722a3daafe3b4186f6b6457e0908390a36000805473ffffffffffffffffffffffffffffffffffffffff19169055565b6000546001600160a01b031690565b6007546001600160a01b031681565b6105026104ee368890038801886121fe565b6104fd36889003880188612246565b610ae9565b610529610514368890038801886121fe565b8561052436879003870187612246565b610c29565b60006105496101008801356105436101208a013586610c7f565b90610cc4565b905061056961055d36899003890189612169565b88610100013585610cef565b600061057b60a0890160808a01612122565b600481111561059a57634e487b7160e01b600052602160045260246000fd5b14156105b85760405162461bcd60e51b815260040161035590612759565b60006105cb610100890160e08a01612122565b60048111156105ea57634e487b7160e01b600052602160045260246000fd5b14156105fa576105fa8186610e24565b600061062561060f60a08a0160808b01612122565b6106206101008b0160e08c01612122565b610e5a565b90506001600160a01b038316610639573392505b6106a361064e368a90038a0160408b0161213c565b8561065c60208c018c611fc4565b86600186600281111561067f57634e487b7160e01b600052602160045260246000fd5b148b8e61014001358f60000160a00180360381019061069e919061213c565b610f61565b6107086106b8368a90038a0160a08b0161213c565b83336106c760208d018d611fc4565b60028660028111156106e957634e487b7160e01b600052602160045260246000fd5b148d61014001358c8f60000160400180360381019061069e919061213c565b61072161071a368a90038a018a6121fe565b8585610f86565b5050505050505050565b6006546001600160a01b031681565b336107486020830183611fc4565b6001600160a01b03161461076e5760405162461bcd60e51b8152600401610355906127ed565b600654604051631d03b74d60e11b81526001600160a01b0390911690633a076e9a906107a29084906000199060040161285b565b600060405180830381600087803b1580156107bc57600080fd5b505af11580156107d0573d6000803e3d6000fd5b50505060608201803591506107e89060408401611fc4565b6001600160a01b03167fbfe0e802e586c99960de1a111c80f598b281996d65080d74dbe29986f55b274a3361082360c0860160a08701611fc4565b60405161083d92919060c0880135906020890135906123c6565b60405180910390a350565b610850610ae5565b6001600160a01b03166108616104be565b6001600160a01b0316146108875760405162461bcd60e51b815260040161035590612724565b6001600160a01b0381166108ad5760405162461bcd60e51b815260040161035590612557565b600080546040516001600160a01b03808516939216917f8be0079c531659141344cd1fd0a4f28419497f9722a3daafe3b4186f6b6457e091a36000805473ffffffffffffffffffffffffffffffffffffffff19166001600160a01b0392909216919091179055565b6005546001600160a01b031681565b604080518082018252601081527f30313233343536373839616263646566000000000000000000000000000000006020820152815182815260608181018452926000919060208201818036833701905050905060005b6020811015610add578260048683602081106109a657634e487b7160e01b600052603260045260246000fd5b1a60f81b6001600160f81b031916901c60f81c60ff16815181106109da57634e487b7160e01b600052603260045260246000fd5b01602001516001600160f81b031916826109f58360026129c4565b81518110610a1357634e487b7160e01b600052603260045260246000fd5b60200101906001600160f81b031916908160001a90535082858260208110610a4b57634e487b7160e01b600052603260045260246000fd5b825191901a600f16908110610a7057634e487b7160e01b600052603260045260246000fd5b01602001516001600160f81b03191682610a8b8360026129c4565b610a96906001612998565b81518110610ab457634e487b7160e01b600052603260045260246000fd5b60200101906001600160f81b031916908160001a90535080610ad5816129fa565b91505061097a565b509392505050565b3390565b805160ff16158015610afd57506020810151155b8015610b0b57506040810151155b15610bca576007546040517f2aee7a310000000000000000000000000000000000000000000000000000000081526001600160a01b0390911690632aee7a3190610b599085906004016128ce565b60206040518083038186803b158015610b7157600080fd5b505afa158015610b85573d6000803e3d6000fd5b505050506040513d601f19601f82011682018060405250810190610ba99190612102565b610bc55760405162461bcd60e51b815260040161035590612659565b610c25565b8160000151600001516001600160a01b0316610bff826000015183602001518460400151610bf7876102bc565b929190611005565b6001600160a01b031614610c255760405162461bcd60e51b815260040161035590612659565b5050565b6002548151602083015160408401516001600160a01b0390931692610c54929190610bf788886102f5565b6001600160a01b031614610c7a5760405162461bcd60e51b815260040161035590612690565b505050565b600082610c8e57506000610310565b6000610c9a83856129c4565b905082610ca785836129b0565b1461030d5760405162461bcd60e51b8152600401610355906126c7565b6000808211610ce55760405162461bcd60e51b815260040161035590612622565b61030d82846129b0565b6006546040517ffb0000c00000000000000000000000000000000000000000000000000000000081526000916001600160a01b03169063fb0000c090610d399087906004016128b0565b60206040518083038186803b158015610d5157600080fd5b505afa158015610d65573d6000803e3d6000fd5b505050506040513d601f19601f82011682018060405250810190610d8991906122ac565b90506000610d9782846110e1565b905083811115610db95760405162461bcd60e51b8152600401610355906124fa565b600654604051631d03b74d60e11b81526001600160a01b0390911690633a076e9a90610deb90889085906004016128bf565b600060405180830381600087803b158015610e0557600080fd5b505af1158015610e19573d6000803e3d6000fd5b505050505050505050565b6000610e308383611110565b9050610e3c8184612998565b3414610c7a5760405162461bcd60e51b815260040161035590612824565b60006003836004811115610e7e57634e487b7160e01b600052602160045260246000fd5b1480610ea957506004836004811115610ea757634e487b7160e01b600052602160045260246000fd5b145b8015610efd57506003826004811115610ed257634e487b7160e01b600052602160045260246000fd5b1480610efd57506004826004811115610efb57634e487b7160e01b600052602160045260246000fd5b145b15610f0a57506000610310565b816004811115610f2a57634e487b7160e01b600052602160045260246000fd5b836004811115610f4a57634e487b7160e01b600052602160045260246000fd5b1115610f5857506002610310565b50600192915050565b83610f7757610f7288888888611122565b610721565b61072188888888878787611429565b825160408082015160208082015191518188015185516060870151805190850151878c01519590980151965195976001600160a01b03909416967fdddcdb07e460849cf04a4445b7af9faf01b7f5c7ba75deaf969ac5ed830312c396610ff89694959394929392918b918d9190612903565b60405180910390a3505050565b600080859050600061107d6040518060400160405280601a81526020017f19457468657265756d205369676e6564204d6573736167653a0a00000000000081525061105084516117b6565b604080516000808252602082018181528284018281526060840192835260808401909452889390916118fa565b905060018180519060200120878787604051600081526020016040526040516110a994939291906123ef565b6020604051602081039080840390855afa1580156110cb573d6000803e3d6000fd5b5050604051601f19015198975050505050505050565b6000806110ee8385612998565b90508381101561030d5760405162461bcd60e51b8152600401610355906125b4565b600061030d6127106105438585610c7f565b60008460400151600481111561114857634e487b7160e01b600052602160045260246000fd5b141561118d5760405181906001600160a01b0382169085156108fc029086906000818181858888f19350505050158015611186573d6000803e3d6000fd5b5050611423565b6001846040015160048111156111b357634e487b7160e01b600052602160045260246000fd5b1415611261576020840151156111db5760405162461bcd60e51b8152600401610355906125eb565b60055484516040517f776062c30000000000000000000000000000000000000000000000000000000081526001600160a01b039092169163776062c39161122a9186908690899060040161247d565b600060405180830381600087803b15801561124457600080fd5b505af1158015611258573d6000803e3d6000fd5b50505050611423565b60038460400151600481111561128757634e487b7160e01b600052602160045260246000fd5b141561130157826001146112ad5760405162461bcd60e51b8152600401610355906127b6565b600354845160208601516040517ff709b9060000000000000000000000000000000000000000000000000000000081526001600160a01b039093169263f709b9069261122a9290918791879160040161247d565b60048460400151600481111561132757634e487b7160e01b600052602160045260246000fd5b141561139f578260011461134d5760405162461bcd60e51b8152600401610355906127b6565b60048054855160208701516040517f8450ebe40000000000000000000000000000000000000000000000000000000081526001600160a01b0390931693638450ebe49361122a9392889288920161247d565b600354845160208601516040517f9c1c2ee90000000000000000000000000000000000000000000000000000000081526001600160a01b0390931692639c1c2ee9926113f5929091879187918a9060040161243a565b600060405180830381600087803b15801561140f57600080fd5b505af1158015610721573d6000803e3d6000fd5b50505050565b60006114388887898787611d9a565b905060028260400151600481111561146057634e487b7160e01b600052602160045260246000fd5b1480156114ee575081516040516301ffc9a760e01b81526001600160a01b03909116906301ffc9a79061149e90632dde656160e21b9060040161240d565b60206040518083038186803b1580156114b657600080fd5b505afa1580156114ca573d6000803e3d6000fd5b505050506040513d601f19601f820116820180604052508101906114ee9190612102565b806115d6575060038260400151600481111561151a57634e487b7160e01b600052602160045260246000fd5b1480611549575060048260400151600481111561154757634e487b7160e01b600052602160045260246000fd5b145b80156115d6575081516040516301ffc9a760e01b81526001600160a01b03909116906301ffc9a79061158690632dde656160e21b9060040161240d565b60206040518083038186803b15801561159e57600080fd5b505afa1580156115b2573d6000803e3d6000fd5b505050506040513d601f19601f820116820180604052508101906115d69190612102565b156117a957815160208301516040517fb9c4d9fb0000000000000000000000000000000000000000000000000000000081526000916001600160a01b0384169163b9c4d9fb91611628916004016128fa565b60006040518083038186803b15801561164057600080fd5b505afa158015611654573d6000803e3d6000fd5b505050506040513d6000823e601f3d908101601f1916820160405261167c9190810190611fe0565b90506000826001600160a01b0316630ebd4c7f86602001516040518263ffffffff1660e01b81526004016116b091906128fa565b60006040518083038186803b1580156116c857600080fd5b505afa1580156116dc573d6000803e3d6000fd5b505050506040513d6000823e601f3d908101601f19168201604052611704919081019061207e565b9050815181511461171457600080fd5b60005b81518110156117a457600080611755878e86868151811061174857634e487b7160e01b600052603260045260246000fd5b6020026020010151611dfa565b9150915081965061178f8e828e88878151811061178257634e487b7160e01b600052603260045260246000fd5b6020026020010151611122565b5050808061179c906129fa565b915050611717565b505050505b84610e1989838984611122565b6060816117f7575060408051808201909152600181527f300000000000000000000000000000000000000000000000000000000000000060208201526102f0565b8160005b8115611821578061180b816129fa565b915061181a9050600a836129b0565b91506117fb565b60008167ffffffffffffffff81111561184a57634e487b7160e01b600052604160045260246000fd5b6040519080825280601f01601f191660200182016040528015611874576020820181803683370190505b508593509050815b83156118f15761188d6001826129e3565b905061189a600a85612a15565b6118a5906030612998565b60f81b8282815181106118c857634e487b7160e01b600052603260045260246000fd5b60200101906001600160f81b031916908160001a9053506118ea600a856129b0565b935061187c565b50949350505050565b6060600082518451865188518a518c518e516119169190612998565b6119209190612998565b61192a9190612998565b6119349190612998565b61193e9190612998565b6119489190612998565b67ffffffffffffffff81111561196e57634e487b7160e01b600052604160045260246000fd5b6040519080825280601f01601f191660200182016040528015611998576020820181803683370190505b5090506000805b8a51811015611a2b578a81815181106119c857634e487b7160e01b600052603260045260246000fd5b01602001516001600160f81b03191683836119e2816129fa565b945081518110611a0257634e487b7160e01b600052603260045260246000fd5b60200101906001600160f81b031916908160001a90535080611a23816129fa565b91505061199f565b5060005b8951811015611abb57898181518110611a5857634e487b7160e01b600052603260045260246000fd5b01602001516001600160f81b0319168383611a72816129fa565b945081518110611a9257634e487b7160e01b600052603260045260246000fd5b60200101906001600160f81b031916908160001a90535080611ab3816129fa565b915050611a2f565b5060005b8851811015611b4b57888181518110611ae857634e487b7160e01b600052603260045260246000fd5b01602001516001600160f81b0319168383611b02816129fa565b945081518110611b2257634e487b7160e01b600052603260045260246000fd5b60200101906001600160f81b031916908160001a90535080611b43816129fa565b915050611abf565b5060005b8751811015611bdb57878181518110611b7857634e487b7160e01b600052603260045260246000fd5b01602001516001600160f81b0319168383611b92816129fa565b945081518110611bb257634e487b7160e01b600052603260045260246000fd5b60200101906001600160f81b031916908160001a90535080611bd3816129fa565b915050611b4f565b5060005b8651811015611c6b57868181518110611c0857634e487b7160e01b600052603260045260246000fd5b01602001516001600160f81b0319168383611c22816129fa565b945081518110611c4257634e487b7160e01b600052603260045260246000fd5b60200101906001600160f81b031916908160001a90535080611c63816129fa565b915050611bdf565b5060005b8551811015611cfb57858181518110611c9857634e487b7160e01b600052603260045260246000fd5b01602001516001600160f81b0319168383611cb2816129fa565b945081518110611cd257634e487b7160e01b600052603260045260246000fd5b60200101906001600160f81b031916908160001a90535080611cf3816129fa565b915050611c6f565b5060005b8451811015611d8b57848181518110611d2857634e487b7160e01b600052603260045260246000fd5b01602001516001600160f81b0319168383611d42816129fa565b945081518110611d6257634e487b7160e01b600052603260045260246000fd5b60200101906001600160f81b031916908160001a90535080611d83816129fa565b915050611cff565b50909998505050505050505050565b6000806000611daa868787611dfa565b90925090506000611dbb8786611110565b90506000611dc982846110e1565b90508015611dec57600154611dec908b9083908c906001600160a01b0316611122565b509198975050505050505050565b600080611e1085611e0b8686611110565b611e1c565b91509150935093915050565b60008082841115611e3b57611e3183856129e3565b9150829050611e42565b5060009050825b9250929050565b8035600581106102f057600080fd5b600060608284031215611e69578081fd5b6040516060810181811067ffffffffffffffff82111715611e8c57611e8c612a55565b6040529050808235611e9d81612a6b565b815260208381013590820152611eb560408401611e49565b60408201525092915050565b60006101008284031215611ed3578081fd5b6040516080810181811067ffffffffffffffff82111715611ef657611ef6612a55565b6040529050808235611f0781612a6b565b815260208381013590820152611f208460408501611e58565b6040820152611f328460a08501611e58565b60608201525092915050565b60006101608284031215611f50578081fd5b6040516080810181811067ffffffffffffffff82111715611f7357611f73612a55565b604052905080611f838484611ec1565b81526101008301356020820152610120830135604082015261014083013560608201525092915050565b600060608284031215611fbe578081fd5b50919050565b600060208284031215611fd5578081fd5b813561030d81612a6b565b60006020808385031215611ff2578182fd5b825167ffffffffffffffff811115612008578283fd5b8301601f81018513612018578283fd5b805161202b61202682612974565b61294a565b8181528381019083850185840285018601891015612047578687fd5b8694505b8385101561207257805161205e81612a6b565b83526001949094019391850191850161204b565b50979650505050505050565b60006020808385031215612090578182fd5b825167ffffffffffffffff8111156120a6578283fd5b8301601f810185136120b6578283fd5b80516120c461202682612974565b81815283810190838501858402850186018910156120e0578687fd5b8694505b838510156120725780518352600194909401939185019185016120e4565b600060208284031215612113578081fd5b8151801515811461030d578182fd5b600060208284031215612133578081fd5b61030d82611e49565b60006060828403121561214d578081fd5b61030d8383611e58565b60006101008284031215611fbe578081fd5b6000610100828403121561217b578081fd5b61030d8383611ec1565b60008060008060008086880361028081121561219f578283fd5b610160808212156121ae578384fd5b8897506121bd8a828b01611fad565b965050506101c087013593506121d7886101e08901611fad565b925061024087013591506102608701356121f081612a6b565b809150509295509295509295565b60006101608284031215612210578081fd5b61030d8383611f3e565b600080610180838503121561222d578182fd5b6122378484611f3e565b94610160939093013593505050565b600060608284031215612257578081fd5b6040516060810181811067ffffffffffffffff8211171561227a5761227a612a55565b604052823560ff8116811461228d578283fd5b8152602083810135908201526040928301359281019290925250919050565b6000602082840312156122bd578081fd5b5051919050565b600581106122e257634e487b7160e01b600052602160045260246000fd5b9052565b80356122f181612a6b565b6001600160a01b031682526020818101359083015261231260408201611e49565b610c7a60408401826122c4565b6001600160a01b038151168252602081015160208301526040810151610c7a60408401826122c4565b6001600160a01b038151168252602081015160208301526040810151612371604084018261231f565b506060810151610c7a60a084018261231f565b61238f828251612348565b602081015161010083015260408101516101208301526060015161014090910152565b6001600160a01b0391909116815260200190565b6001600160a01b0394851681529290931660208301526040820152606081019190915260800190565b93845260ff9290921660208401526040830152606082015260800190565b7fffffffff0000000000000000000000000000000000000000000000000000000091909116815260200190565b6001600160a01b03958616815293851660208501529190931660408301526060820192909252608081019190915260c060a0820181905260009082015260e00190565b6001600160a01b039485168152928416602084015292166040820152606081019190915260800190565b6000602080835283518082850152825b818110156124d3578581018301518582016040015282016124b7565b818111156124e45783604083870101525b50601f01601f1916929092016040019392505050565b60208082526024908201527f6e6f7420656e6f7567682073746f636b206f66206f7264657220666f7220627560408201527f79696e6700000000000000000000000000000000000000000000000000000000606082015260800190565b60208082526026908201527f4f776e61626c653a206e6577206f776e657220697320746865207a65726f206160408201527f6464726573730000000000000000000000000000000000000000000000000000606082015260800190565b6020808252601b908201527f536166654d6174683a206164646974696f6e206f766572666c6f770000000000604082015260600190565b6020808252600d908201527f746f6b656e496420206265203000000000000000000000000000000000000000604082015260600190565b6020808252601a908201527f536166654d6174683a206469766973696f6e206279207a65726f000000000000604082015260600190565b60208082526013908201527f696e636f7272656374207369676e617475726500000000000000000000000000604082015260600190565b6020808252601d908201527f696e636f727265637420627579657220666565207369676e6174757265000000604082015260600190565b60208082526021908201527f536166654d6174683a206d756c7469706c69636174696f6e206f766572666c6f60408201527f7700000000000000000000000000000000000000000000000000000000000000606082015260800190565b6020808252818101527f4f776e61626c653a2063616c6c6572206973206e6f7420746865206f776e6572604082015260600190565b60208082526021908201527f455448206973206e6f7420737570706f72746564206f6e2073656c6c2073696460408201527f6500000000000000000000000000000000000000000000000000000000000000606082015260800190565b60208082526017908201527f76616c756520206265203120666f72204552432d373231000000000000000000604082015260600190565b6020808252600c908201527f6e6f7420616e206f776e65720000000000000000000000000000000000000000604082015260600190565b60208082526016908201527f6d73672e76616c756520697320696e636f727265637400000000000000000000604082015260600190565b6101208101833561286b81612a6b565b6001600160a01b0381168352506020840135602083015261289260408301604086016122e6565b6128a260a0830160a086016122e6565b826101008301529392505050565b61010081016103108284612348565b61012081016128a28285612348565b61016081016103108284612384565b61018081016128ec8285612384565b826101608301529392505050565b90815260200190565b9788526001600160a01b03968716602089015294861660408801526060870193909352608086019190915290921660a084015260c083019190915260e08201526101000190565b60405181810167ffffffffffffffff8111828210171561296c5761296c612a55565b604052919050565b600067ffffffffffffffff82111561298e5761298e612a55565b5060209081020190565b600082198211156129ab576129ab612a29565b500190565b6000826129bf576129bf612a3f565b500490565b60008160001904831182151516156129de576129de612a29565b500290565b6000828210156129f5576129f5612a29565b500390565b6000600019821415612a0e57612a0e612a29565b5060010190565b600082612a2457612a24612a3f565b500690565b634e487b7160e01b600052601160045260246000fd5b634e487b7160e01b600052601260045260246000fd5b634e487b7160e01b600052604160045260246000fd5b6001600160a01b0381168114612a8057600080fd5b5056fea264697066735822122084b9f828053d2693891c3e57335529f74b31c094d0e4e1557a78e22ad420664764736f6c63430008000033",
  "immutableReferences": {},
  "source": "// SPDX-License-Identifier: MIT\npragma solidity >=0.4.22 <0.9.0;\npragma experimental ABIEncoderV2;\n\nimport \"../lib/math/SafeMath.sol\";\nimport \"../lib/interface/IERC1155.sol\";\nimport \"../lib/utils/StringLibrary.sol\";\nimport \"../lib/utils/BytesLibrary.sol\";\nimport \"../lib/contracts/ERC165.sol\";\nimport \"./OwnableOperatorRole.sol\";\nimport \"./ERC20TransferProxy.sol\";\nimport \"./TransferProxy.sol\";\nimport \"./ExchangeOrdersHolder.sol\";\nimport \"./ExchangeDomain.sol\";\nimport \"./ExchangeState.sol\";\nimport \"./TransferProxyForDeprecated.sol\";\n\nimport \"../lib/contracts/HasSecondarySaleFees.sol\";\nimport \"../lib/utils/Ownable.sol\";\n\ncontract NftExchange is Ownable, ExchangeDomain {\n    using SafeMath for uint;\n    using UintLibrary for uint;\n    using StringLibrary for string;\n    using BytesLibrary for bytes32;\n\n    enum FeeSide {NONE, SELL, BUY}\n\n    event Buy(\n        address indexed sellToken, uint256 indexed sellTokenId, uint256 sellValue,\n        address owner,\n        address buyToken, uint256 buyTokenId, uint256 buyValue,\n        address buyer,\n        uint256 amount,\n        uint256 salt\n    );\n\n    event Cancel(\n        address indexed sellToken, uint256 indexed sellTokenId,\n        address owner,\n        address buyToken, uint256 buyTokenId,\n        uint256 salt\n    );\n\n    bytes4 private constant _INTERFACE_ID_FEES = 0xb7799584;\n    uint256 private constant UINT256_MAX = 2 ** 256 - 1;\n\n    address payable public beneficiary;\n    address public buyerFeeSigner;\n\n    TransferProxy public transferProxy;\n    TransferProxyForDeprecated public transferProxyForDeprecated;\n    ERC20TransferProxy public erc20TransferProxy;\n    ExchangeState public state;\n    ExchangeOrdersHolder public ordersHolder;\n\n    constructor(\n        TransferProxy _transferProxy, TransferProxyForDeprecated _transferProxyForDeprecated, ERC20TransferProxy _erc20TransferProxy, ExchangeState _state,\n        ExchangeOrdersHolder _ordersHolder, address payable _beneficiary, address _buyerFeeSigner\n    ) {\n        transferProxy = _transferProxy;\n        transferProxyForDeprecated = _transferProxyForDeprecated;\n        erc20TransferProxy = _erc20TransferProxy;\n        state = _state;\n        ordersHolder = _ordersHolder;\n        beneficiary = _beneficiary;\n        buyerFeeSigner = _buyerFeeSigner;\n    }\n\n    function setBeneficiary(address payable newBeneficiary) external onlyOwner {\n        beneficiary = newBeneficiary;\n    }\n\n    function setBuyerFeeSigner(address newBuyerFeeSigner) external onlyOwner {\n        buyerFeeSigner = newBuyerFeeSigner;\n    }\n\n    function exchange(\n        Order calldata order,\n        Sig calldata sig,\n        uint buyerFee,\n        Sig calldata buyerFeeSig,\n        uint amount,\n        address buyer\n    ) payable external {\n        validateOrderSig(order, sig);\n        validateBuyerFeeSig(order, buyerFee, buyerFeeSig);\n        uint paying = order.buying.mul(amount).div(order.selling);\n        verifyOpenAndModifyOrderState(order.key, order.selling, amount);\n        require(order.key.sellAsset.assetType != AssetType.ETH, \"ETH is not supported on sell side\");\n        if (order.key.buyAsset.assetType == AssetType.ETH) {\n            validateEthTransfer(paying, buyerFee);\n        }\n        FeeSide feeSide = getFeeSide(order.key.sellAsset.assetType, order.key.buyAsset.assetType);\n        if (buyer == address(0x0)) {\n            buyer = msg.sender;\n        }\n        /* SELL = accept, BUY = buy */\n        transferWithFeesPossibility(order.key.sellAsset, amount, order.key.owner, buyer, feeSide == FeeSide.SELL, buyerFee, order.sellerFee, order.key.buyAsset); \n        transferWithFeesPossibility(order.key.buyAsset, paying, msg.sender, order.key.owner, feeSide == FeeSide.BUY, order.sellerFee, buyerFee, order.key.sellAsset);\n        emitBuy(order, amount, buyer);\n    }\n\n    function validateEthTransfer(uint value, uint buyerFee) internal view {\n        uint256 buyerFeeValue = value.bp(buyerFee);\n        require(msg.value == value + buyerFeeValue, \"msg.value is incorrect\");\n    }\n\n    function cancel(OrderKey calldata key) external {\n        require(key.owner == msg.sender, \"not an owner\");\n        state.setCompleted(key, UINT256_MAX);\n        emit Cancel(key.sellAsset.token, key.sellAsset.tokenId, msg.sender, key.buyAsset.token, key.buyAsset.tokenId, key.salt);\n    }\n\n    function validateOrderSig(\n        Order memory order,\n        Sig memory sig\n    ) internal view {\n        if (sig.v == 0 && sig.r == bytes32(0x0) && sig.s == bytes32(0x0)) {\n            require(ordersHolder.exists(order), \"incorrect signature\");\n        } else {\n            require(prepareMessage(order).recover(sig.v, sig.r, sig.s) == order.key.owner, \"incorrect signature\");\n        }\n    }\n\n    function validateBuyerFeeSig(\n        Order memory order,\n        uint buyerFee,\n        Sig memory sig\n    ) internal view {\n        require(prepareBuyerFeeMessage(order, buyerFee).recover(sig.v, sig.r, sig.s) == buyerFeeSigner, \"incorrect buyer fee signature\");\n    }\n\n    function prepareBuyerFeeMessage(Order memory order, uint fee) public pure returns (string memory) {\n        return keccak256(abi.encode(order, fee)).toString();\n    }\n\n    function prepareMessage(Order memory order) public pure returns (string memory) {\n        return keccak256(abi.encode(order)).toString();\n    }\n\n    function transferWithFeesPossibility(Asset memory firstType, uint value, address from, address to, bool hasFee, uint256 sellerFee, uint256 buyerFee, Asset memory secondType) internal {\n        if (!hasFee) {\n            transfer(firstType, value, from, to);\n        } else {\n            transferWithFees(firstType, value, from, to, sellerFee, buyerFee, secondType);\n        }\n    }\n\n    function transfer(Asset memory asset, uint value, address from, address to) internal {\n        if (asset.assetType == AssetType.ETH) {\n            address payable toPayable = payable(to);\n            toPayable.transfer(value);\n        } else if (asset.assetType == AssetType.ERC20) {\n            require(asset.tokenId == 0, \"tokenId  be 0\");\n            erc20TransferProxy.erc20safeTransferFrom(IERC20(asset.token), from, to, value);\n        } else if (asset.assetType == AssetType.ERC721) {\n            require(value == 1, \"value  be 1 for ERC-721\");\n            transferProxy.erc721safeTransferFrom(IERC721(asset.token), from, to, asset.tokenId);\n        } else if (asset.assetType == AssetType.ERC721Deprecated) {\n            require(value == 1, \"value  be 1 for ERC-721\");\n            transferProxyForDeprecated.erc721TransferFrom(IERC721(asset.token), from, to, asset.tokenId);\n        } else {\n            transferProxy.erc1155safeTransferFrom(IERC1155(asset.token), from, to, asset.tokenId, value, \"\");\n        }\n    }\n\n    function transferWithFees(Asset memory firstType, uint value, address from, address to, uint256 sellerFee, uint256 buyerFee, Asset memory secondType) internal {\n        uint restValue = transferFeeToBeneficiary(firstType, from, value, sellerFee, buyerFee);\n        if (\n            secondType.assetType == AssetType.ERC1155 && IERC1155(secondType.token).supportsInterface(_INTERFACE_ID_FEES) ||\n            (secondType.assetType == AssetType.ERC721 || secondType.assetType == AssetType.ERC721Deprecated) && IERC721(secondType.token).supportsInterface(_INTERFACE_ID_FEES)\n        ) {\n            HasSecondarySaleFees withFees = HasSecondarySaleFees(secondType.token);\n            address payable[] memory recipients = withFees.getFeeRecipients(secondType.tokenId);\n            uint[] memory fees = withFees.getFeeBps(secondType.tokenId);\n            require(fees.length == recipients.length);\n            for (uint256 i = 0; i < fees.length; i++) {\n                (uint newRestValue, uint current) = subFeeInBp(restValue, value, fees[i]);\n                restValue = newRestValue;\n                transfer(firstType, current, from, recipients[i]);\n            }\n        }\n        address payable toPayable = payable(to);\n        transfer(firstType, restValue, from, toPayable);\n    }\n\n    function transferFeeToBeneficiary(Asset memory asset, address from, uint total, uint sellerFee, uint buyerFee) internal returns (uint) {\n        (uint restValue, uint sellerFeeValue) = subFeeInBp(total, total, sellerFee);\n        uint buyerFeeValue = total.bp(buyerFee);\n        uint beneficiaryFee = buyerFeeValue.add(sellerFeeValue);\n        if (beneficiaryFee > 0) {\n            transfer(asset, beneficiaryFee, from, beneficiary);\n        }\n        return restValue;\n    }\n\n    function emitBuy(Order memory order, uint amount, address buyer) internal {\n        emit Buy(order.key.sellAsset.token, order.key.sellAsset.tokenId, order.selling,\n            order.key.owner,\n            order.key.buyAsset.token, order.key.buyAsset.tokenId, order.buying,\n            buyer,\n            amount,\n            order.key.salt\n        );\n    }\n\n    function subFeeInBp(uint value, uint total, uint feeInBp) internal pure returns (uint newValue, uint realFee) {\n        return subFee(value, total.bp(feeInBp));\n    }\n\n    function subFee(uint value, uint fee) internal pure returns (uint newValue, uint realFee) {\n        if (value > fee) {\n            newValue = value - fee;\n            realFee = fee;\n        } else {\n            newValue = 0;\n            realFee = value;\n        }\n    }\n\n    function verifyOpenAndModifyOrderState(OrderKey memory key, uint selling, uint amount) internal {\n        uint completed = state.getCompleted(key);\n        uint newCompleted = completed.add(amount);\n        require(newCompleted <= selling, \"not enough stock of order for buying\");\n        state.setCompleted(key, newCompleted);\n    }\n\n    function getFeeSide(AssetType sellType, AssetType buyType) internal pure returns (FeeSide) {\n        if ((sellType == AssetType.ERC721 || sellType == AssetType.ERC721Deprecated) &&\n            (buyType == AssetType.ERC721 || buyType == AssetType.ERC721Deprecated)) {\n            return FeeSide.NONE;\n        }\n        if (uint(sellType) > uint(buyType)) {\n            return FeeSide.BUY;\n        }\n        return FeeSide.SELL;\n    }\n}\n",
  "sourcePath": "/Users/huzongming/Documents/fingernft-main/nft-contract/contracts/exchange/NftExchange.sol",
  "compiler": {
    "name": "solc",
    "version": "0.8.0+commit.c7dfd78e.Emscripten.clang"
  },
  "schemaVersion": "3.4.7",
  "updatedAt": "2022-04-16T12:14:14.418Z",
  "devdoc": {
    "kind": "dev",
    "methods": {
      "owner()": {
        "details": "Returns the address of the current owner."
      },
      "renounceOwnership()": {
        "details": "Leaves the contract without owner. It will not be possible to call `onlyOwner` functions anymore. Can only be called by the current owner. NOTE: Renouncing ownership will leave the contract without an owner, thereby removing any functionality that is only available to the owner."
      },
      "transferOwnership(address)": {
        "details": "Transfers ownership of the contract to a new account (`newOwner`). Can only be called by the current owner."
      }
    },
    "version": 1
  },
  "userdoc": {
    "kind": "user",
    "methods": {},
    "version": 1
  }
}